:020000041400E6
:10000000F0790020D900001400F002F800F08AF81E
:100010000AA090E8000C82448344AAF10107DA4563
:1000200001D100F07FF8AFF2090EBAE80F0013F02B
:10003000010F18BFFB1A43F001031847F40000003A
:10004000240100000A444FF0000C10F8013B13F0AB
:10005000070408BF10F8014B1D1108BF10F8015B21
:10006000641E05D010F8016B641E01F8016BF9D114
:1000700013F0080F1EBF10F8014BAD1C0C1B09D16B
:100080006D1E58BF01F801CBFAD505E014F8016BDD
:1000900001F8016B6D1EF9D59142D6D3704700006F
:1000A000103A24BF78C878C1FAD8520724BF30C8A4
:1000B00030C144BF04680C60704700000023002476
:1000C00000250026103A28BF78C1FBD8520728BF68
:1000D00030C148BF0B607047DFF82C00016841F465
:1000E0007001016009480047FEE7FEE7FEE7FEE712
:1000F000FEE7FEE7FEE7FEE7FEE7FEE70448054908
:10010000054A064B7047000088ED00E00900001426
:10011000F00B0020F0790020F0730020F073002035
:100120007046704740F2D91CC1F2000C60470000D5
:100130006001001400000010883A0100A0000014C3
:10014000E83B011400000020A80100004400001456
:10015000343C0114A801002048780000BC000014C1
:10016000F0790020D9000014E9000014EB0000141D
:10017000ED000014EF000014F10000145A5A5A5A0E
:10018000000000000000000000000000F300001468
:10019000F500001400000000F7000014F90000143E
:1001A000FB000014098C0010FB000014FB0000147D
:1001B000FB000014FB000014FB000014FB00001403
:1001C00061960010FB000014FB000014FB000014FB
:1001D000FB000014FB000014FB000014FB000014E3
:1001E000FB000014FB0000146D400010FB00001425
:1001F000FB000014FB000014FB000014A1450010DC
:1002000047490010FB000014FB000014FB00001421
:10021000FB000014FB000014FB000014FB000014A2
:10022000FB000014FB000014FB000014FB00001492
:10023000FB000014FB000014FB000014FB00001482
:10024000FB000014FB000014FB000014FB00001472
:1002500000000000FB000014FB000014FB00001471
:1002600000000000FB000014FB000014FB00001461
:10027000FB0000146E2907F0EF80702907F02F8231
:1002800066290FF0F28265290FF0EF8267290FF0DF
:10029000EC826129AFF3008003681B0A28BF41F09C
:1002A0008001692906F03685642906F033857529B1
:1002B00006F030856F2907F0BD81782907F0FB81B2
:1002C000E92907F05981E42907F05681F52907F05B
:1002D0005381EF2907F0BA81F82907F0FA81036802
:1002E000DB0928BF41F08001632907F0AF8473293F
:1002F00007F0B484E32907F0BF84F32907F0C4842E
:10030000002070471FB50FF080FA9DE8030006F04B
:10031000A7FF07F021FD0400002000210EF0F0FEF1
:10032000401C6060002000210EF0D4FEE06006F06A
:1003300053FF1FBD10B510BD07F0E0FC1146FFF7DD
:10034000E1FF00F01BF807F0B7FD03B4FFF7F2FF81
:1003500003BC07F0EFF9000030B58DB004460D4640
:100360002B46224617A101A806F0BEFCE0B201AA66
:100370004FF47F010EF024FD0DB030BD10B541F2F9
:10038000E452164916480BF02BFE1648006800F0A0
:10039000E5F804F07FF81348006800F01AFC00212B
:1003A000114800F041FC00F044FF00210F4800F02C
:1003B0003BFC01210E4800F037FC00F026FD002038
:1003C00010BD0000726563656976656420736967B6
:1003D0006E616C3A2025642025640A000EF7001037
:1003E00000800020F00000202400002050000020A9
:1003F0003C0000200146FC4A08681060002070475D
:1004000010B50020F9490860F94909680868002119
:1004100002F0D5FBF649096801220868214603F07D
:100420008EF8F448006803F0A3F9002010BD10B561
:10043000A2B01AA80BF042FF012416E02246EEA15A
:1004400012A806F051FC2246EEA10AA806F04CFCC8
:1004500000201AA920228123CDE9002102900AAAB6
:10046000012112A80BF0FCFB641C072CE6DD002028
:100470004FF47A710223E8A2CDE900100146F6A0FC
:100480000BF0EEFB00204FF47A710223F54ACDE920
:1004900000100146F4A00BF0E3FB0020142104231C
:1004A000F84ACDE900100146F7A00BF0D9FB002077
:1004B00001460290F8481423F84ACDE900100021C3
:1004C000F7A00BF0CDFB002001460290F848142362
:1004D000F84ACDE900100021F7A00BF0C1FB002085
:1004E00001460290F2481423F64ACDE9001000219B
:1004F000F5A00BF0B5FB002209A9E9A00BF02FFC39
:10050000002208A9ECA00BF02AFC002207A9EEA00B
:100510000BF025FCB64909680868DDE9073209993E
:1005200002F078FB002206A9CBA00BF018FC0022F9
:1005300005A9CDA00BF013FC002204A9D2A00BF05A
:100540000EFCBDF81420BDF81810A948049B0068E3
:1005500002F01BF9FFF754FF22B010BD70B506463C
:1005600004200DF0AFFB044603F09AF80446A148BE
:100570000460F0200DF0A6FB05469E480168284661
:1005800001F08AFD05469A480560D44930460CF0D2
:1005900060FC0022D2A1D54800680CF00BFED449C3
:1005A00008800846B0F90000002802DA4FF0FF305A
:1005B00070BDFFF73CFF0020FAE72DE9F04794B04B
:1005C00004460E4617469846DDF8709002A80BF0D8
:1005D00075FE2078012802DB2078072804DD4FF023
:1005E000FF3014B0BDE8F0878048006828B9C1A08A
:1005F0000BF08CFA6FF00100F3E712A831883A880B
:10060000B8F80030B9F800C0018042808380A0F8BB
:1006100006C000BF824602A8009021785346734A64
:100620007348006802F0BDF80546002D04DAB8A052
:100630000BF06CFA2846D4E722786FA10AA806F0DE
:1006400053FB002002AB2022812100900AA80BF06E
:10065000A3FB00200AF082FEB7A00BF057FA284651
:10066000BFE7F0B58BB007460C4615461E46002185
:1006700005EB850020F00040CDE908410A91079084
:100680008220C82142224FF4A073CDE90332CDE984
:1006900005104121AB4BCDE901620091642200219C
:1006A00038460CF08BFE00200BB0F0BD2DE9F04F6A
:1006B00097B004460F4690461D4614A80021C180FD
:1006C00081804180018000BF04A80BF0F7FD2078F5
:1006D000012802DB2078072804DD4FF0FF3017B037
:1006E000BDE8F08F4148006828B982A00BF00EFAEF
:1006F0006FF00100F3E716A83988B8F800200180F0
:10070000428000BF814614A804A9CDE900102178D9
:100710004B46364A3648006802F071F80646002E0D
:1007200004DA7BA00BF0F2F93046D8E705B301A854
:100730002178BDF85020BDF854B002EB0B0A1FFA27
:100740008AF3BDF852C0BDF856B00CEB0B0A1FFA85
:100750008AF9018042808380A0F806C0A0F8089042
:1007600000BF0323012201A92846FFF77AFF00BF3B
:10077000227821A10CA806F0B7FA002004AB2022B1
:10078000812100900CA80BF007FB00200AF0E6FD89
:1007900069A00BF0BBF93046A1E730B591B0044633
:1007A00001A80BF08BFD2078012802DB20780728B8
:1007B00003DD4FF0FF3011B030BD202101A806F05D
:1007C0009FFC22780CA109A806F08EFA002001AB4C
:1007D00020228121009009A80BF0DEFA0546FFF7E0
:1007E0000FFE2846E7E70000080000200401002073
:1007F00004000020000000207369676E6174757248
:1008000065256400436F6C6F72207369676E617455
:1008100075726520256400005365747320746865E3
:10082000206D6178696D756D20746F74616C2062E4
:100830006C6F636B732073656E74207065722066D5
:1008400072616D652E202864656661756C74203157
:1008500030303029000000004D617820626C6F63F9
:100860006B730000101E01104D617820626C6F6385
:100870006B7320706572207369676E617475726541
:1008800000000000681E01104D696E20626C6F63ED
:100890006B2061726561000000002E40801D011018
:1008A0004D696E2073617475726174696F6E0000BA
:1008B0000000F03F781C0110487565207370726568
:1008C00061640000F81C01105361747572617469F1
:1008D0006F6E20737072656164000000F40C01108B
:1008E000676574524C534672616D6500F4000020D8
:1008F0000C0000204E6F20726177206672616D657A
:1009000020696E206D656D6F7279210A000000000C
:10091000436F6C6F722073617475726174696F6E6E
:100920002069736E2774206869676820656E6F752B
:100930006768210A000000005375636365737321C3
:100940000A0000004343423130B591B001A80BF0DA
:10095000B5FC202101A806F0D3FB012415E02246B6
:10096000AFF26C1109A806F0BFF9002001AB2022FC
:100970008121009009A80BF00FFA0546002D02DA3C
:10098000284611B030BD601CC4B2072CE7DDFFF76C
:1009900037FD0020F5E7F0B589B004460D46164650
:1009A0004FF0FF3007900120089008A80AF0E0FA05
:1009B000071E02DA384609B0F0BDA6B1002007AA2A
:1009C000CDE903020590069004200346CDE9010518
:1009D00000947048B0F9002000216F4800680CF0C6
:1009E00043FB0798E7E700200422CDE902501346B5
:1009F000CDE9004204906748B0F900200121664823
:100A000000680CF031FB0020D5E72DE9F0418AB0F9
:100A100007460E466148006808B1FFF7F1FC6048E0
:100A2000006802F0A5FE0020B422CDE90402069081
:100A3000079002200021CDE9001064230203CDE9D4
:100A40000210584938460CF033FF044655496018E7
:100A500001225549FFF79FFF8046C4F500508208E8
:100A6000504821184E48006802F048FE0546002014
:100A7000B421C822CDE907150692099002204FF44F
:100A8000A071CDE90260CDE90410412047496423FB
:100A90004FF40052CDE90010424938460CF008FFEF
:100AA00004EB85023F4938460CF015FF40460AB07A
:100AB000BDE8F08110B5044601212046FFF7A5FFEF
:100AC00010BD30B504460B462568002102E0505C9D
:100AD0006854491C18688842F9D8186830BD2DE957
:100AE000F04705460E4615B90020BDE8F08705FB26
:100AF00006F04CF25031B0FBF1F40CB90120F4E7F0
:100B000020460EF013FE814648460EF09DF88046C2
:100B100027490EF02BFE07460EF0FAFD0446FF2C87
:100B200001D9FF2401E004B90124E0B2DDE77FB57B
:100B300000212048006801F000FE044614B3A0889C
:100B40006188401A2189E288891A00FB01F6208811
:100B5000194951F82050E8B23146FFF7C0FF019023
:100B60002D0AE8B23146FFF7BAFF02902D0AE8B22B
:100B70003146FFF7B4FF039001AA02A903A80AF0C7
:100B8000D1F805E00020009068460AF0D9FF00BFC8
:100B90007FBD00000C000020F400002004010020B4
:100BA00000000020000008100020081043435131CD
:100BB00000004842040000209C0D01101CB50020DC
:100BC00000900123C64A01460190C6A00BF048F8E8
:100BD0001CBD70B505460C200DF074F8044600F0FD
:100BE00098FD0446C3480460C34928460CF031F917
:100BF0000022C2A1C24800680CF0DCFAC14908809A
:100C00000022C1A1BE4800680CF0D4FAC049088097
:100C10000022C0A1BA4800680CF0CCFABF49088095
:100C2000FFF7CCFF002070BD02460B4613B1BC4855
:100C3000C2610FE0002105E0082902DB4FF0FF3020
:100C40007047491CB64850F821000028F4D1B44838
:100C500040F821200020F3E7B248007810B1B148F5
:100C600000787047B048007808B10220F9E700200A
:100C7000F7E70020AD49087070470120AB490870C4
:100C8000A84908700020704710B50446207858B174
:100C90002078082805DC2078401EA14951F8200062
:100CA00010B94FF0FF3010BD0020A1490860207836
:100CB00028B900229F498BA00BF051F803E020785F
:100CC000401E9C490870FFF7D8FFECE770B5064658
:100CD0000C463046FFF7D8FF0546002D01DA2846BE
:100CE00070BD9349206808600020F9E710B5002422
:100CF0000CE08B4850F824004368894850F82400E1
:100D0000611C02688CA00AF001FF641C844850F842
:100D100024000028EDD110BD10B586B004468949E5
:100D200003C9CDE90401BDF81430BDF81220BDF8A7
:100D3000101085A00AF0EAFE54B1002004AACDE903
:100D40000020062382220146029020460CF036FB4A
:100D5000002006B010BD10B586B00446002005AADC
:100D6000CDE9010203900123009404906548B0F995
:100D700000200021624800680CF076F9059806B062
:100D800010BD1FB5002003AACDE900200346029044
:100D90006248B0F900200021594800680CF064F95D
:100DA000039804B010BD10B5FFF741FB03F032FB10
:100DB0000AF070FB0AF096FB00F03BFAFFF7FEFE2C
:100DC00010BD10B50BF0E0F84A48006800F044FD93
:100DD000554908700BF04AFA08B1FFF7E4FF10BD5F
:100DE00038B5002401E0601CC4B24D4850F824001E
:100DF0000028F8D121463F48006800F021FEC0B22B
:100E000000906846FFF740FF38BD1CB5002500265E
:100E1000FFF7E6FF63E0544800680CF0CBFC0446A3
:100E2000FFF7CFFF052D56D2DFE805F00315343963
:100E300042000020019001A80AF082FE38493D4A94
:100E4000127851F8221088688047002801DA0325BB
:100E500000E0012541E03448007818B1FFF791FF28
:100E6000022516E03148007840B12D49314A127808
:100E700051F82210C8688047002801DA032508E0ED
:100E80003EB134B9002000906846FFF7FDFE002512
:100E900000BF22E02448007800B900251DE00020B2
:100EA000224908701F490870FFF76BFF042514E002
:100EB0001E48007818B1FFF7E0FE00250AE014B1E3
:100EC0002A48007830B9002000906846FFF7DCFE21
:100ED000002500BF01E0032500BF00BF26469AE7BA
:100EE000C421011044656661756C742070726F676F
:100EF00072616D0020000020BC0D011072756E0043
:100F0000F40000201800002072756E6E696E670094
:100F10001A00002073746F70000000001C00002095
:100F2000A801002010000020130000201100002064
:100F3000140000201200002025643A2025732C2084
:100F400025730A007C0E0110506978792066697259
:100F50006D776172652076657273696F6E202564A6
:100F60002E25642E25640A00F0000020CF0000200A
:100F70001CB50120019001A809F0FAFF4A48006859
:100F800008B1FFF73DFA4948006802F0F1FB002084
:100F9000FFF7E1FE00BF03F093FA04460068012268
:100FA00069468368204698470028F4D11CBD7FB568
:100FB00003F086FA0446002547E03D48007810B16A
:100FC00001283BD117E02068012203A9836820464D
:100FD0009847012800DA7FBD9DF80C00FF2805D155
:100FE0003448007810B90120314908709DF80C0090
:100FF0003049087026E02068C168204688470428E8
:101000001BDB2068022202A98368204698472068DB
:10101000022201A9836820469847002002A9009077
:10102000684609F051FF012001A90090684609F0C7
:101030004BFF00201E49087000BF03E000201C4940
:10104000087000BF00BF681CC5B20A2DB5DB00BF29
:10105000C1E71CB51848006801F03BFAFFF7A7FF8D
:101060006A4601A91448006801F088FB012313486F
:10107000DDE900210068FFF7F4FA03F021FA0446E5
:101080000068016920468847FFF751FD01E0FFF73E
:101090008EFF06490868016889880268D288891A23
:1010A0000029F4D000201CBD040100200000002015
:1010B000340000203500002004000020F000002053
:1010C00030B58BB00546012411E0224647A102A8A5
:1010D00005F00AFE002301AA0AA902A80AF03FFEB1
:1010E00020222846019905F094FF641C2035072C26
:1010F000EBDD0BB030BD01203F4908700020704788
:10110000F0B5C5B006463D4F3B48007810B10DA87C
:10111000FFF7D6FF00204FF47A41B122C823CDE972
:101120000932CDE90B1002204FF4A0710DABCDE9CF
:101130000530CDE907103048007808B1382000E0CC
:10114000002094214122CDE90126CDE903102C484D
:1011500064234FF49032394600902A4800680CF01E
:10116000A7FB0446C8204FF4A0710022CDE900215E
:101170000290C4F5903138191346212209F0E4FF9A
:1011800004F57A4239461F4800680CF0A4FB054676
:1011900000201949087025B91B48006808B10120D2
:1011A00008701948056045B0F0BD00B587B0174814
:1011B0000068A8B9212006900020059004904FF403
:1011C000A0700390C82002900E48006802A9CDE9E3
:1011D000001003AB04AA05A906A80AF0EBFA02E086
:1011E0000120FFF78DFF002007B000BD7369676E17
:1011F00061747572652564003800002000000810D5
:10120000434D5631F00000204C0000201400002017
:1012100038B504464FF4FA702060208880B2009000
:10122000694604F1080009F04FFE38BDC160026153
:1012300070471FB500204FF4FA71042373A2CDE963
:101240000010014680A00AF00BFD00204FF4487109
:10125000042380A2CDE9001001468CA00AF000FD15
:1012600000204FF42F7104238BA2CDE9001001461A
:1012700098A00AF0F5FC00204FF46171042398A2B5
:10128000CDE900100146A5A00AF0EAFC002203A95E
:101290006DA00AF064FD002202A97CA00AF05FFDA7
:1012A000A148DDE90221FFF7C1FF002203A989A0BF
:1012B0000AF055FD002202A998A00AF050FD9B48B3
:1012C000DDE90221FFF7B2FF1FBD08B50120009044
:1012D000684609F04DFEFFF7ACFF9348FFF798FF13
:1012E0009248FFF795FF9248006808B1FFF788F829
:1012F0009048006802F03CFA0020FFF72CFD002027
:1013000008BDF8B504460D466068B0F1004F22D024
:101310006068281A21694843E16805FB01004FF421
:101320007A7190FBF1F62068304420602068B0F5B7
:101330007A7F02DD0846206004E02068002801DA98
:1013400000202060208880B20090694604F10800E7
:1013500009F0BAFD00BF6560F8BD2DE9FC41764893
:10136000006801F0B6F800217348006801F0E5F963
:101370000446E4B1A1886288881A00EBD07102EBC0
:1013800061018FB22189E288881A00EBD07102EBEB
:1013900061011FFA81F8C7F1A005A8F1640629468A
:1013A0006148FFF7AEFF31466048FFF7AAFF6A4683
:1013B00001A96148006801F0E1F901235F48DDE916
:1013C00000210068FFF74DF9FFF7B1FB0020BDE8F1
:1013D000FC8110B54FF4FA7404600172C2600361BD
:1013E0006407446010BD00B54FF448734FF4FA72BF
:1013F00000214D48FFF7EDFF4FF461734FF42F725A
:1014000001214A48FFF7E5FF00BD0000406320507E
:10141000616E2F74696C745F64656D6F2050616ECE
:1014200020617869732070726F706F7274696F6E6B
:10143000616C206761696E202864656661756C74F3
:10144000203530302900000050616E205020676147
:10145000696E000040632050616E2F74696C745F88
:1014600064656D6F2050616E2061786973206465DA
:101470007269766174697665206761696E20286497
:10148000656661756C7420383030290050616E20BB
:1014900044206761696E000040632050616E2F74C4
:1014A000696C745F64656D6F2054696C7420617839
:1014B00069732070726F706F7274696F6E616C20E7
:1014C0006761696E202864656661756C74203730C9
:1014D0003029000054696C742050206761696E00E7
:1014E00040632050616E2F74696C745F64656D6F2A
:1014F0002054696C74206178697320646572697620
:101500006174697665206761696E2028646566612B
:10151000756C7420393030290000000054696C74F7
:101520002044206761696E00C8010020DC010020B2
:10153000040100200000002004000020F000002032
:10154000F0B505AC70CC02F00107AFB101F00107B6
:101550004FB11F78276013F8017C2F601F1A17F80E
:10156000017C37601DE013F8017C27601F782F6035
:101570001F1A3F78376014E001F0010747B11F1AC6
:101580003F7827601F782F6013F8017C376008E0F0
:101590001F1A17F8017C276013F8017C2F601F7851
:1015A0003760F0BD2DE9F04F88B007468846914678
:1015B000FA48006803904FF0000AD34600200490D8
:1015C0000026612520E09D241BE005A806A907AAA6
:1015D000CDE9002102904FF4A071039801FB0500B2
:1015E00003192A4621464FF4A070FFF7A9FF079878
:1015F000824406988344DDE9040108440490641C95
:10160000761CA32CE1D36D1C672DDCD3BAFBF6F05E
:101610003870BBFBF6F088F800000498B0FBF6F0D9
:1016200089F8000008B0BDE8F08F2DE9F04F87B0D1
:1016300004460D46164620783178884202DA94F83E
:10164000008001E096F800802878404501DA95F89E
:10165000008008EB4800C11700EB9171C1F38709C6
:101660002078A0EB090020702878A0EB09002870F2
:101670003078A0EB0900307020783178884201DDA5
:10168000277800E037782878B84200DD2F78384690
:101690000DF0DCFE02460B46CDE900010020C049FA
:1016A0000DF07CFDCDE902010DF046FD824620786B
:1016B0000EF03CF8514603900EF058F88346287817
:1016C0000EF034F8514603900EF050F80590307843
:1016D0000EF02CF8514603900EF048F8049058464E
:1016E0000EF016F8207005980EF012F82870049885
:1016F0000EF00EF8307007B0BDE8F08F38B5044634
:1017000000202072009068460AF01AFA002020702B
:1017100038BD10B504462046FFF7F0FF204610BD47
:10172000704738B505460C4668460DF043FB00BFD0
:1017300000980DF081FAA042FAD30AF025FC38BDDA
:10174000F8B504460D46002615E0002000906846D6
:101750000AF0F6F94EF660212046FFF7E2FF6178C5
:10176000904A02EB81000AF0EBF94EF66021204628
:10177000FFF7D7FF761CAE42E7DBF8BD2DE9FF414E
:101780000546A0200390642002908748036802AABF
:1017900003A9681CFEF78AFF0446002C1BDD2146C6
:1017A00082A00AF0B3F90AF037F8009020460DF055
:1017B000B6FF074681490DF0D9FF06460DF0A8FF98
:1017C000019001A80AF038F804212846FFF7B8FF75
:1017D00068460AF031F8BDE8FF8138B50446607804
:1017E000072800DD38BD0020009068460AF0A8F9FF
:1017F0004EF660212046FFF794FF6178694A02EBBC
:1018000081000AF09DF900BFECE770B586B0044690
:10181000684661789D22A325612367260180428066
:101820008580C380068100BF01231A4669465E4851
:101830000068FEF716FF03AA04A905A8FFF7B2FE89
:1018400003AA04A905A8FFF7F0FE03AA04A905A8A6
:1018500009F068FA06B070BD30B589B004460DF0E5
:1018600083F80546207AD0B1212008900020079007
:1018700006904FF4A0700590C820049000204A49BB
:10188000096804AACDE90021029005AB06AA07A9C0
:1018900008A80AF05FF82046FFF7B7FF19E02078A4
:1018A000B8B1212008900020079006904FF4A07056
:1018B0000590C820049001203B49096804AACDE99D
:1018C0000021029005AB06AA07A908A80AF042F871
:1018D00000BF2078062879D2DFE800F00310254FFA
:1018E00079A155B1201D0DF065FA0120207000206E
:1018F000089008A80AF024F900BF99E015B9002063
:1019000020700FE060680DF097F92D49884209D9E1
:1019100000206070201D0DF04DFA2046FFF75DFF9E
:101920000220207084E09DB903212046FFF708FFC4
:10193000201D0DF03FFA607828B90120089008A812
:1019400009F044F901E0012020720320207013E027
:1019500060680DF071F91B4988420DD9201D0DF00A
:1019600029FA6078401C60706078082801D1002056
:1019700060702046FFF731FF5AE02DB1201D0DF0B9
:1019800019FA0420207008E060680DF055F90E493E
:10199000884202D92046FFF7B1FE49E00401002049
:1019A00000E06F409C0D0110F0000020676F6F6435
:1019B0006E6573733D25640A000000000000484313
:1019C000D012130040420F00008793032CE095B91A
:1019D000607848B90020089008A809F0F7F80421B9
:1019E0002046FFF7ADFE02E02046FFF7C7FE204687
:1019F000FFF784FE12E060680DF01EF9414988424D
:101A00000CD9607828B90020089008A809F0DEF801
:101A100000BF2046FFF772FE0520207008E015B9D0
:101A20002046FFF76BFE03E02046FFF767FE00BF8E
:101A300000BF207810B1012009B030BD0020FBE7C5
:101A40002DE9F04104460D46012D02DC0020BDE8E1
:101A5000F08156E00CF088FF06460AF095FA2078EF
:101A600020B101280BD0022846D124E0201D0DF022
:101A7000A1F9012020702046FFF7AFFE40E056B1EB
:101A8000201D0DF097F9012060702046FFF7A5FE9C
:101A9000022020700EE060680DF0CEF81A498842EE
:101AA00008D904212046FFF74BFE2046FFF726FE0B
:101AB0000020CCE724E04EB9677804212046FFF7E8
:101AC0003FFE2046FFF71AFE3846C0E760680DF07B
:101AD000B3F80E4988420ED9201D0DF06BF96078DD
:101AE000401C60706178681C814201D101206070E7
:101AF0002046FFF772FE03E02046FFF7FFFD00BF20
:101B000000BFA7E7D012130060E3160040420F00A9
:101B100070B5044600BF0020206200BF401EA082B6
:101B2000400C608220828111A08861F3CB00A080EC
:101B3000608961F3CB00608105E0A569A868A061B8
:101B400028460CF0B2F8A0690028F6D104F118007C
:101B5000E06170BD10B504460020A06104F11800DA
:101B6000E0612046FFF7D4FF204610BD10B50446C3
:101B70002046FFF7CDFF204610BD4189C1F3C801C3
:101B800040F2FF12914208D0D0F80A104160C1899A
:101B90000181418962F3CB014181704710B5B0F9F1
:101BA00010408C4201DD0CB20482B0F91240944224
:101BB00001DD14B24482B0F914409C4201DA1CB237
:101BC000848210BDF8B504460D46A888C0F3090309
:101BD0002888C0F3C8026888C0F309012046FFF7CF
:101BE000DDFF6089C0F3C80040F2FF11884205D1D3
:101BF0002868C4F80A00A888E08103E0A888C0F338
:101C00000900E08100BF6A88C2F30902501EAA8859
:101C1000C2F309010A1A009200BF694604F12000CC
:101C20000CF02AF8F7480078D8B1F7490C200CF0EE
:101C30005DF8060009D0304629680160A9888180D6
:101C40000021816000BF064600E00020E1690860D5
:101C5000E069006800B9F8BDE06900680830E0613B
:101C600000BF00BFF7E770B505460C4604F1200140
:101C700005F120000CF000F8B4F91430B4F912208A
:101C8000B4F910102846FFF789FF2089C0F3090135
:101C90002889C0F30900814203DD2089C0F30900CF
:101CA0002881D848007848B1A069E9690860E069EE
:101CB000E8610020A06104F11800E06170BD00211E
:101CC000016181604160011DC1604FF0FF31018001
:101CD0000121818200218161704770B504466068EE
:101CE00000B905E04FF4E972C8A1CEA005F010F9E3
:101CF0000020A060401E20800020A0610BE0206931
:101D00000568206928B12069FFF730FF06460BF00F
:101D1000CCFF256100BF20690028F0D170BD10B54F
:101D200003460BE05868FFF728FF586804685968B5
:101D300018690860586818615C6000BF586800281E
:101D4000F0D110BD10B504462046FFF7E8FF20464D
:101D5000FFF7C3FF204610BD30B503460D4615E022
:101D60002C682046FFF709FFB3F90000A188C1F3F2
:101D7000C801401AB3F91410884205DD20682860B4
:101D8000186920601C6100E030BD00BF2868002891
:101D9000E6D100BFF8E710B50446A068E060E0684F
:101DA0000068A060A06818B12046A168FFF7D4FFC2
:101DB00010BD10B50446211D2046FFF7CDFF201DA4
:101DC000E060E0680068A060A06818B12046A168E3
:101DD000FFF7C2FF10BD2DE9F04704460D462888E5
:101DE000C0F3C800B4F90010884206D02888C0F3B8
:101DF000C80020802046FFF7DCFF40E06888C0F381
:101E00000901A0680089C0F30900814203DD204672
:101E1000FFF7C1FF33E0A888C0F30901A068C088BC
:101E2000C0F30900814200DA2CE02946A068FFF7E0
:101E3000C9FE14E0A06807683868A16808603946E0
:101E4000A068FFF710FF2FB13846FFF78FFE8146DD
:101E50000BF02BFF2046A168FFF77EFF00BFA068B4
:101E6000006848B1A888C0F30901A0680068C0886C
:101E7000C0F309008142DDDA0020BDE8F087A068E8
:101E80000028BBD100BF604924200BF02FFF5FEA80
:101E9000000804D04046FFF75DFE804600E00020C9
:101EA000064636B963A0A16909F030FE4FF0FF3055
:101EB000E3E7A069401CA061A0683060E0680660AC
:101EC000E66029463046FFF77DFE0020D5E7024652
:101ED000002001E0401C09680029FBD1704770B563
:101EE000054614461960216008461A4608E006684F
:101EF00006B906E000681268066806B901E00068E5
:101F0000F5E700BF16681E600026166070BDF0B5CC
:101F10000646059D2C46284638E034B30F6827B3A3
:101F2000B0B11768A7B117683F6AD1F800C0DCF8F4
:101F300020C067450CDD1768D3F800C0CCF80070EE
:101F40001F683F681F601F683F681760401E1DE0E4
:101F50000F68D3F800C0CCF800701F683F681F609E
:101F60001F683F680F60641E10E070B1176867B1AA
:101F70001768D3F800C0CCF800701F683F681F6076
:101F80001F683F681760401E00E0F0BDC5E730B530
:101F900087B00446206908B907B030BD05AB06AA72
:101FA00020462169FFF79BFF012524E000200490D3
:101FB000039004A8029003A801900DE002AB05AACB
:101FC00006A920460095FFF7A2FF01AB05AA06A9C6
:101FD00020460095FFF79BFF06980028EED1059854
:101FE0000028EBD1019908600299086004980690D6
:101FF000039805906D0005980028D7D106982061B8
:1020000000BFC9E768000020111A01102E2E5C2EB7
:102010002E5C636F6D6D6F6E5C626C6F622E6370B1
:102020007000000021616374697665426C6F6273B1
:1020300000000000626C6F62732025640A000000DB
:1020400070B50646306900B970BD35692C680DE081
:10205000286A216A884200DB06E040F2CB12AFF228
:10206000540104A004F054FF25462C68002CEFD145
:1020700000BFE9E7692D3E6D6F6D656E74732E616B
:10208000726561203E3D206A2D3E6D6F6D656E74F8
:10209000732E6172656100002DE9F04104460E4621
:1020A00007231C22F949201D0BF04FFE041F0020BE
:1020B000C034A0771420A06264202084142060849F
:1020C0000520A0850A20E085A660218C01EB810116
:1020D00048000BF0EEFDE0600020A082A084218C7F
:1020E00001EB8101E06800EB41000C382061282001
:1020F0000BF0E8FD0746E64900F074FD074644F89A
:10210000C00D002507E0C5EBC502211D01EB8200D3
:10211000FFF7E3FD6D1C072DF5DB2046BDE8F081E0
:1021200070B50446206828B1206800F072FD0546AD
:102130000BF0BBFDD4F8CC000BF0B3FD07231C2241
:10214000D449201D05F05AF8204670BDF0B506466A
:102150000B461446002500210022002022E033F81F
:1021600011702FB90AB903EB4102471CB8B215E050
:102170009AB133F8117017804F1C33F817705780DD
:102180008F1C33F817709780CF1C33F81770D780E7
:102190000F1D33F8177017810A3200BF6F1CBDB2D4
:1021A0004F1DB9B2A542DADBF0BD2DE9FC4F9646D2
:1021B000002400220020009053E031F8120000B902
:1021C0004BE0501C31F81050901C31F81060D01CBE
:1021D00031F81070101D31F810C0601C80B20190F1
:1021E000501D83B235E031F8130000B92BE0581CC4
:1021F00031F81080981C31F81090D81C31F810A0DC
:10220000181D31F810B045450DDC4E450BDB574528
:1022100009DCDC4507DB002021F813000098401C96
:1022200080B200900EE0A8450CDCB1450ADBBA454F
:1022300008DCE34506DB002021F812000098401C72
:1022400080B2009000BF0198401C80B20190581DE0
:1022500083B201987045C6DB00BF601C84B2501D7C
:1022600082B27445A9DB0098BDE8FC8F2DE9F74FD9
:1022700083B082460020029000230090A5E031F850
:10228000130000B99BE0581C31F810C0981C31F8BD
:102290001080D81C31F81090181D31F810B0029839
:1022A000401C80B20190581D82B281E031F81200CA
:1022B00000B977E0501C31F81040901C31F81050F4
:1022C000D01C31F81060101D31F81070644518DC16
:1022D000ACEB0500BAF8ECE0704512DCB14501DC6E
:1022E0005E4503DDB9450CDC5F450ADC581C21F86E
:1022F0001040002021F812000098401C80B200908D
:102300004FE0454518DBA4EB0800BAF8ECE0704557
:1023100012DCB14501DC5E4503DDB9450CDC5F45EF
:102320000ADC981C21F81050002021F812000098B7
:10233000401C80B2009034E04E4518DCA9EB070049
:10234000BAF8ECE0704512DCA44501DC444503DD3D
:10235000AC450CDC45450ADCD81C21F81060002097
:1023600021F812000098401C80B2009019E05F45EF
:1023700017DBA6EB0B00BAF8ECE0704511DCA445C6
:1023800001DC444503DDAC450BDC454509DC181D8B
:1023900021F81070002021F812000098401C80B233
:1023A000009000BF0198401C80B20190501D82B285
:1023B000DDF814E001987045FFF678AF00BF029891
:1023C000401C80B20290581D83B2DDF814E00298E0
:1023D0007045FFF654AF009806B0BDE8F08FFEB52B
:1023E00005464FF0FF36002700244EE000BF694647
:1023F000D5F8C80001F05DF90028F8D00098401C1D
:1024000000B951E0641C009808B9761C3DE09DF8C5
:102410000410009860F302018DF804109DF8040088
:1024200000F0070000282FDD77BBBDF8040066F33D
:10243000CB00ADF804000098C00800900098C0F3ED
:102440000800ADF806000098400A00900098C0F31C
:102450000800BDF80610C1F309010844ADF80800F2
:102460009DF8041001F00701491EC1EBC102291DAE
:1024700001EB820001A9FFF7AEFC002804DA012776
:10248000214605A009F042FB00BFAFE75F1B00102B
:1024900000200810E51B0010686561702066756CEF
:1024A0006C2025640A00000000BF00240EE0C4EB8D
:1024B000C402291D01EB8200FFF731FCC4EBC4020A
:1024C000291D01EB8200FFF762FD641C072CEED38F
:1024D000FEBD2DE9F04F85B004462046FFF77FFF93
:1024E0004FF00009012084F8DE0000260020A4F847
:1024F000D4006CE0CC34208900EB80054FF0000A5A
:10250000206800EB450B2089CC3C0490C6EBC6014B
:10251000201D00EB8100076938E000BF386AD4F85D
:10252000E810884200DA2EE06846398A0391798AF9
:102530000291B98A0191B988C1F3C801018000BF35
:10254000701C54F8CC1F21F81500BDF80C10681C45
:10255000226822F81010BDF80410A81C226822F886
:102560001010BDF80810E81C226822F81010BDF801
:102570000010281D226822F810102089401C20819C
:10258000CC3C6D1D00BF3F680AF1010A4FB1B4F8A1
:10259000D400B4F8E010884203DAB4F8E200504501
:1025A000BBD811E0B4F8D4100498081A82B2594686
:1025B0002046FFF75BFE8046B8F1000F00D104E033
:1025C00009EB08001FFA80F9ECE700BF761C072E24
:1025D00090D3B4F8D4202046D4F8CC10FFF7E5FD12
:1025E00048441FFA80F9B9F1000F14D0B4F8D42090
:1025F0002046D4F8CC10FFF7A9FD8046B4F8D400EB
:10260000A0EB0800A4F8D400C84504D04A464146CF
:10261000F8A009F07BFA0020A4F8E40084F8DE00BA
:10262000002607E0C6EBC602211D01EB8200FFF782
:1026300054FB761C072EF5D305B0BDE8F08F2DE9CD
:10264000F04F03468846914641464FF0070CB3F8D9
:10265000E40000EB8004B9F1100F02D20020BDE8C5
:10266000F08F93F8DE0028B9B3F8E400B3F8D4A0F3
:10267000504504DB0020088048800220EFE7B3F8D3
:10268000E40038B94AF6552008800CF101001FFA21
:1026900080FC891C4AF65520088053F8CC0F30F88E
:1026A000142015468A80A01CD3F800A03AF810A088
:1026B000601CD3F800B03BF81000AAEB000086B213
:1026C000A81985B24E81201DD3F800A03AF810A0B9
:1026D000E01CD3F800B03BF81000AAEB000087B272
:1026E000E81985B28F8104F1010AD3F800B03BF8F4
:1026F0001AA0304606EBD07B0AEB6B0A1FFA8AF26F
:10270000A81885B2CA8004F1030AD3F800B03BF8D8
:102710001AA0384607EBD07B0AEB6B0A1FFA8AF245
:10272000A81885B20A814D80188B401C1883CC3BB9
:102730004FF6FF7000EA4C0091E710B502460B46D9
:1027400033B9B2F8D400002816DDD2F8CC0010BDA1
:10275000002400210CE0D2F8CC0030F8110098429F
:1027600004D1D2F8CC0000EB4100F0E7641C491D15
:10277000B2F8D400A042EEDC0020E8E7D0F8CC307C
:102780000B60B0F8D4301360704710B5044664296C
:1027900001DCA4F8E010A4F8E220C4F8E83000203E
:1027A00010BD2DE9F04389B004460D469046994688
:1027B000109F01A809F082FD072D04DD4FF0FF30C6
:1027C00009B0BDE8F0834B46424601A9206800F0FD
:1027D00066FB064616B94FF0FF30F1E72946206840
:1027E00000F0EDF92A4601A9206800F0A8FE27B103
:1027F000202201A9384604F051FC3046E0E72DE9DB
:10280000F0478AB004460D4691469A46DDE91267C4
:1028100008A80021C18081804180018000BF6846F6
:1028200009F04CFD53464A4608A9206800F09DFC7B
:1028300008AB4A466946206800F031FB8046B8F193
:10284000000F04D14FF0FF300AB0BDE8F0872946F1
:10285000206800F0B4F92A466946206800F06FFE4F
:102860001FB1089838600998786026B1202269461F
:10287000304604F013FC4046E6E72DE9F74F0546E5
:102880008B460BEB8B0ED5F8CC0000EB4E06D5F843
:10289000CCE0029800EB80000EEB4007308830B1AE
:1028A000388820B13088B7F800E0704502D10020A8
:1028B000BDE8FE8F708801B2B0880FFA80FCF08806
:1028C00002B230890FFA80F8788803B2B8880FFA1C
:1028D00080F9F88804B238890FFA80FA994211DB3E
:1028E000A1EB0900B5F8EEE070450BDCA24201DC7B
:1028F000444505DD524505DCC24501DD944201DC5D
:102900000120D5E78B4211DBA3EB0C00B5F8EEE01C
:1029100070450BDCA24201DC444505DD524505DC77
:10292000C24501DD944201DC0120C1E7A24211DB76
:10293000A2EB0A00B5F8EEE070450BDC994201DC31
:10294000634505DD494505DCE14501DD8B4201DCE0
:102950000120ADE7944211DBA4EB0800B5F8EEE0EE
:1029600070450BDC994201DC634505DD494505DC1A
:10297000E14501DD8B4201DC012099E7002097E76A
:102980002DE9F04F91B006468946924609EB890140
:10299000D6F8CC0000EB41040AEB8A01D6F8CC0053
:1029A00000EB4105B4F800804FF6FF7000EAC8085C
:1029B000288840EA080860886988884201DA6088C7
:1029C00000E068880F90A088A988884201DDA0886F
:1029D00000E0A8880E90E088E988884201DAE08863
:1029E00000E0E8880D9020892989884208DD208947
:1029F00007E000002A2A2A2A2025642025640A00EC
:102A000028890C90A1886288881800EBD0714FEA61
:102A1000610B2189E288881800EBD07149100B9175
:102A2000A9886A88881800EBD07149100A91298911
:102A3000EA88881800EBD0714A100992099A0B991C
:102A4000881A0CF06CFE00900A99ABEB01000CF0B8
:102A500066FE0190DDE900010BF07CFF2B4902903E
:102A60000CF084FE03900CF003FE294A294BCDE9BB
:102A700004010CF093FBCDE906010CF05DFB08901E
:102A8000D036B18901EB4101B06800EB810756F8FF
:102A9000D009B84202D211B0BDE8F08FA7F800808B
:102AA0000F9878800E98B8800D98F8800C9838812F
:102AB00008980CF026FE00B27881B6F8DC00401CC5
:102AC000A6F8DC0000202080288000BFE3E770B576
:102AD00004460020A4F8DC00002512E06E1C0BE088
:102AE000324629462046FFF7C8FE20B13246294625
:102AF0002046FFF745FF761CB4F8D400B042EFDC67
:102B00006D1CB4F8D400A842E8DC70BD000034436A
:102B10006F1283C0CA21094010B504460021204627
:102B20000CF00CFE01D2FE4810BD4FF07E50FBE7CA
:102B30007FB5039901980CF019FE0446029900989C
:102B40000CF014FE054621460CF0BDFD04B070BD2E
:102B50002DE9F04107460D463C460AE0204603F0C9
:102B6000E3FF06461EB12C603046BDE8F081A4F5B7
:102B70008074002CF2DA0020286000BFF5E72DE910
:102B8000FF41029900980CF067FE054603990198F1
:102B90000CF062FE0646314630460CF0E7FD074673
:102BA000294628460CF0E2FD804639460CF08BFDA4
:102BB000044620460CF034F904B0BDE8F08110B5AD
:102BC000024600200AE029B113681B5C03F00703EA
:102BD0008B4202D1002314682354401CB0F5803F7F
:102BE000F1D310BD30B504460D462560CD482061B7
:102BF0004FF07E506061A061CB48E0614FF08040B3
:102C00002062CA48606200212046FFF7D8FF2046B4
:102C100030BD704710B50446E1616261A3610020D8
:102C200010BD2DE9F84F05460F4691460021484654
:102C30000CF0F5FD01D2012000E0002082460024C6
:102C400000262EE0696801EB440191F900000CF0C8
:102C500066FD009039680CF089FD834679680CF0B8
:102C600032FD8046BAF1000F0DD0696801EB4401D6
:102C700091F901000CF053FD834641460CF05EFDD6
:102C80000ED2761C0CE0696801EB440191F9010059
:102C90000CF045FD834641460CF0C1FD00D2761C88
:102CA000641CA868A042CDD83046BDE8F88F2DE955
:102CB000FF4704461D461FE0A0680CF037FD814623
:102CC0002846FFF729FF8246524601A92046FFF712
:102CD000A8FF80460CF02AFD074649460CF008FD87
:102CE00006463046616A0CF09AFD00D805E0294698
:102CF00002980CF0E8FC0290DEE700BF029804B0F6
:102D0000BDE8F08770B506460C46206820F000410B
:102D10000D46874928460CF011FD09D20021206894
:102D20000CF07DFD02D28248206001E081482060E5
:102D300070BD2DE9FC4104460E460025002001909F
:102D4000009018E0616801EB450191F900000CF07A
:102D5000E6FC074601990CF0B6FC0190616801EBB6
:102D6000450191F901000CF0DAFC074600990CF0DE
:102D7000AAFC00906D1CA068A842E3D8A0680CF0E3
:102D8000D5FC0746394601980CF0B2FC0190A068CA
:102D90000CF0CCFC0746394600980CF0A9FC0090DA
:102DA00001A92046FFF7AEFF69462046FFF7AAFFBC
:102DB0000198306000987060BDE8FC812DE9FC4FFF
:102DC0001446B4F802B04BF0010BB1F904E0D1F8AD
:102DD00000A00BFB0EAAB4F800B04BF0010B0AEBFD
:102DE0000B05002600234FE0002240E0AF5CA2F17B
:102DF000010A15F80AC0B1F904A0CAF1000A924408
:102E000015F80A80B1F904A0CAF1000A9244AAF1A7
:102E1000010A15F80A9007EB0C0AAAF17F0ACDF80F
:102E200004A009EB080AAAF17F0ACDF800A0DDF89A
:102E300004A04FEA6A0ACDF804A0DDF800A04FEA2A
:102E40006A0ACDF800A0DDF804A04FFA8AFAD0F89B
:102E500004B00BF813A0DDF800A04FFA8AFAD0F8FE
:102E600004B00BEB430B8BF801A0921C5B1CB4F875
:102E700004A0924503D9D0F80CA09A45B6D8B61C48
:102E8000B1F904A005EB4A05B4F806A0B24503D990
:102E9000D0F80CA09A45A7D88360BDE8FC8F2DE937
:102EA000FF4F93B004460D4611A80AF092FD04F1BD
:102EB0000C0144F62060FFF74BFE6060606820B9AB
:102EC0004FF0FF3017B0BDE8F08FE0684008E060D9
:102ED0002046DDE91512FFF771FF11A92046FFF723
:102EE00028FF1298039011980490DDE903010BF07C
:102EF00031FD074600BF00BF38460BF089FF049044
:102F000038460AF0BEFE039001460BA8049A0AF068
:102F10005DFD38460AF0BBFE0022014604900BE03E
:102F2000000080BFCDCCCC3D000070416666663F9E
:102F30006F12833A6F1283BA09A809F0D5F9FE49D6
:102F400038460CF0C0FB109010980AF0A0FE8046A6
:102F5000404611990CF00AFC039012990CF073FC96
:102F600002464146049007A809F0BEF90B99206972
:102F70000CF0BEFB04900AF090FE824653462046B9
:102F8000DDE90912FFF793FE0646314660690CF051
:102F9000EDFB03900AF081FE314604900CF093FBA8
:102FA00006466E60099828608AF000400346049047
:102FB0002046DDE90912FFF77AFE064631466069D0
:102FC0000CF0D4FB03900AF068FE314604900CF03C
:102FD0003AFC0646EE600998A8600C98FFF79CFD45
:102FE0000E9010980AF04DFE0290206902990CF0A4
:102FF0007FFB03900AF051FE04900E990CF0B6FB93
:1030000082468AF00040034604902046DDE907121C
:10301000FFF74DFE0646304608990CF01DFC019066
:10302000A1690CF0A3FB02900AF037FE03900E9901
:103030000CF09CFB314604900CF005FC0646414622
:1030400009980CF009FC0146049030460CF050FB46
:103050008346584609990CF089FB0246594604906C
:1030600005A80AF0B3FCDDE90523DDE90B01FFF754
:103070005FFD0D90DDE91123DDE90B01FFF758FD40
:103080000F90E1690D980CF059FB12D2E1690B9891
:103090000CF06CFB0590E1690C980CF067FB069056
:1030A000404605990CF062FB049006990CF0CBFBAE
:1030B00006466E61C5F8108053462046DDE90712CA
:1030C000FFF7F5FD0646304608990CF0C5FB019068
:1030D000A169206A0CF04AFB009001990CF046FBB4
:1030E00002900AF0DAFD03900E990CF03FFB314696
:1030F00004900CF0E8FA0646EE61C5F8188069699C
:10310000E8690CF08CFB0CD2D5E90401CDE9030190
:10311000D5E90601C5E90401DDE90312C5E9061296
:1031200000BF606803F02FFDE1690F980CF094FB7D
:10313000824901900CF01AFB4FF0854102900CF08F
:10314000D7FA7F4903900CF0BEFA04900CF0D9FA3C
:103150008146B9F1000F01DA4FF00009B9F1640FAF
:1031600001DD4FF064094846ACE62DE9F04F8DB023
:1031700007460C46164699460BA80AF02AFC09A8F1
:103180000AF027FC06A80AF01BFC04A80AF018FCA9
:1031900007F10C0144F62060FFF7DAFC78607868EC
:1031A00020B94FF0FF300DB0BDE8F08FF86840084F
:1031B000F860B9F80000042803DDB9F80000001F2A
:1031C00000E0002080B2ADF81000B9F80200042839
:1031D00003DDB9F80200001F00E0002080B2ADF866
:1031E00012000820ADF81400BDF81000BDF814104E
:1031F0000844B6F90410884206DDB088BDF8101006
:10320000401A80B2ADF814000820ADF81600BDF8E1
:103210001200BDF816100844B6F90610884206DD03
:10322000F088BDF81210401A80B2ADF8160004AA5A
:1032300031463846FFF7C2FD0BA93846FFF779FD46
:103240004FF000087AE1002575E10120A84000EA6E
:10325000080000B16DE1FDB9BDF81000042806DDDD
:10326000BDF81000001F80B2ADF8180008E0002083
:10327000ADF818000120A84040EA080000F0FF085F
:10328000BDF81200ADF81A000420ADF81C00BDF81E
:103290001600ADF81E0088E0012D1FD1BDF8120008
:1032A000042806DDBDF81200001F80B2ADF81A0038
:1032B00008E00020ADF81A000120A84040EA08000C
:1032C00000F0FF08BDF81000ADF81800BDF81400BC
:1032D000ADF81C000420ADF81E0066E0022D36D1CA
:1032E000BDF81000BDF814100844001DB6F9041014
:1032F000884210DDB088BDF81010401ABDF81410D7
:10330000401A80B2ADF81C000120A84040EA080035
:1033100000F0FF0802E00420ADF81C00BDF810002A
:10332000BDF81410084480B2ADF81800BDF81200C2
:10333000ADF81A0006E00000DA0FC93F0000C842ED
:1033400000002041BDF81600ADF81E002DE0BDF8CC
:103350001200BDF816100844001DB6F90610884288
:1033600010DDF088BDF81210401ABDF81610401A92
:1033700080B2ADF81E000120A84040EA080000F02D
:10338000FF0802E00420ADF81E00BDF81000ADF803
:103390001800BDF81200BDF81610084480B2ADF850
:1033A0001A00BDF81400ADF81C0006AA31463846D4
:1033B000FFF704FD09A93846FFF7BBFCDDE9092347
:1033C000DDE90B01FFF7DBFB0890A84908980CF03A
:1033D00026FA01D3B86830B90120A84040EA0800B5
:1033E00000F0FF084EE0BDF81800BDF8101088424C
:1033F0000CDABDF81800ADF81000BDF81400BDF8E7
:103400001C10084480B2ADF814003BE0BDF81A006F
:10341000BDF8121088420CDABDF81A00ADF812009F
:10342000BDF81600BDF81E10084480B2ADF81600B5
:1034300028E0BDF81800BDF81C100844BDF81010B5
:10344000BDF814201144884208DDBDF81400BDF811
:103450001C10084480B2ADF8140013E0BDF81A0047
:10346000BDF81E100844BDF81210BDF81620114416
:10347000884207DDBDF81600BDF81E10084480B272
:10348000ADF81600B8F10F0F52D1049820600598DE
:103490006060A0880CF04AF983464FF07D510CF033
:1034A00065F982460CF034F9A080A0880CF03EF952
:1034B0004FF07A5101900CF059F94FF08041029091
:1034C0000CF016F9834620880CF030F95946039029
:1034D0000CF0F9F882460CF01BF92080E0880CF023
:1034E00025F983464FF07D510CF040F982460CF0EF
:1034F0000FF9E080E0880CF019F94FF07A51019053
:103500000CF034F94FF0804102900CF0F1F8834652
:1035100060880CF00BF9594603900CF0D4F8824601
:103520000CF0F6F86080786803F02DFB00203AE696
:1035300000BF681CC5B2042DFFF687AE83E6F8B560
:1035400005460F461646684600214170017000BFCF
:10355000002418E060B28DF80100200A40B28DF816
:1035600000009DF9010010F1320F04DB9DF900000D
:1035700010F1320F03DA01202968085502E000201B
:1035800029680855641CB4F5803FE3D3314638A060
:1035900008F0BCFA3DA008F0B9FAF8BD2DE9F047F3
:1035A00080460C46154695F900000CF0B8F88146A7
:1035B00021680CF0DBF8074661680CF084F80646D9
:1035C00095F901000CF0ABF8074631460CF027F9ED
:1035D00002D20020BDE8F08795F900000CF09FF8BA
:1035E0008146A1680CF0C2F80746E1680CF06BF860
:1035F000064695F901000CF092F8074631460CF0AA
:103600009DF801D20020E5E795F900000CF087F85D
:10361000814621690CF0AAF8074661690CF053F85D
:10362000064695F901000CF07AF8074631460CF091
:10363000F6F801D20020CDE795F900000CF06FF804
:103640008146A1690CF092F80746E1690CF03BF85D
:10365000064695F901000CF062F8074631460CF079
:103660006DF801D20020B5E70120B3E70000A041CA
:103670004D4A4C4D6F7574206D6F64656C20696E9A
:103680006465782025352E35640A00004D4A4C4D7E
:103690006F75742061736D2074657374203200003F
:1036A00042490160002201680A604A608A607047EE
:1036B000704730B50246106880881468E488001BA3
:1036C00083B2CBB110680488601C1568288010682C
:1036D000083050F8240008601068C088401C146846
:1036E000E0801068008840F6FE34A04202D100203D
:1036F00014682080012030BD0020FCE7F0B50346AF
:103700000C461E68B6881F68FF88F61BB1B2002001
:103710001E68358811E01E6808362F4605F1010C39
:103720001FFA8CF556F8276044F8206040F6FE3604
:10373000B54200D10025461CB0B2884201DA904261
:10374000E9D31E68F6880E441F68FE801E6836881E
:103750000E441F683E801E68368840F6FE37BE4223
:1037600005D31E683688A6F6FE361F683E80F0BD7B
:10377000026892880368DB88D21A91B20268D28804
:103780000A440368DA80026812880A4403681A80CF
:103790000268128840F6FE339A4205D30268128806
:1037A000A2F6FE3203681A807047000000C00020B5
:1037B0000146F748814201D100207047F548814217
:1037C00001D10120F9E74FF0FF30F6E7014608206C
:1037D00088612020086000BF086800F00800002809
:1037E000FAD020208861486800F0F800704701682E
:1037F00001F0200109B1202181611021016008211F
:10380000816170470246106800F0200008B1202056
:103810009061C8B290600820906100BF106800F00D
:1038200008000028FAD0506800F0F80070470346FE
:10383000012A02D10420186001E0042098610820C8
:10384000986100BF186800F008000028FAD0986856
:103850000870586800F0F800704770B504460D46CF
:10386000CB48844210D11A21092005F04BF8CA48F0
:10387000854204D340F68C40C849086016E040F603
:103880000800C649086011E0C24884420DD11B21DE
:10389000092005F037F8C120C1490860C149C1F8C5
:1038A0001001C148854201D070BDFDE7B5F57A7FB2
:1038B00000D2F9E76C20A061112005F063F8B0FB9D
:1038C000F5F6700820612069301A606100BFEBE7EF
:1038D000402181617047012902D14022026001E04C
:1038E00040228261704770B504460D466DB1A8480C
:1038F000844203D1122000F0FCFB13E0A54884426F
:1039000010D1132000F0F5FB0CE0A148844203D154
:10391000122000F0F9FB05E09E48844202D11320FA
:1039200000F0F2FB70BD2DE9F04105462846FFF797
:103930003FFF06469D4850F83640686800F0F8079B
:103940006762F82F03D10820A861BDE8F08197488D
:1039500000EBC6004068002857D1202F48D006DC75
:10396000082F0BD0102F0AD0182F4CD115E0282F7C
:1039700014D0302F3DD0382F45D13FE000BF20205C
:10398000A861606838B1A06828B120684000A860CC
:103990000820A86100E012E036E000BFD4E9021080
:1039A00088420BD2606848B1E1686068405CA860FA
:1039B000E068401CE0600820A86118E000BF01201A
:1039C0007A4901EBC6014860606958B1206948B185
:1039D000A06830B1606820B1202028600C20A86168
:1039E00005E031E0606A40F4806060628DE00BE0E9
:1039F00000BF606A40F40070606277E0606A40F483
:103A00008070606200BF71E08CE0684800EBC60027
:103A100040680128F8D1402F24D006DC082F0BD0B5
:103A2000102F0AD0382F60D15AE0482F53D0502F92
:103A300025D0582F59D13CE000BF2020A861206933
:103A400050B1606940B100BF0121206801EB400026
:103A5000A8600820A86104E0606A40F480606062A9
:103A600053E05EE0D4E90501401E814202D2042009
:103A7000286001E00420A8610820A86151E02069C5
:103A800050B1D4E90510884206D2A868A26921691C
:103A90008854A069401CA061D4E90501401E814200
:103AA00002D20420286001E00420A8610820A86157
:103AB00037E0206950B1D4E90510884206D2A868E1
:103AC000A26921698854A069401CA061606A40F421
:103AD0008060606219E0606A40F40070606205E036
:103AE000606A40F48070606200BF00BFD4E90710D4
:103AF000884209D20020E060202028600C20A861C4
:103B0000206A401C20620BE000BF00212846FFF71E
:103B1000EAFE2846FFF76BFE0120254941F8260002
:103B200000BF00BF00BF10E72DE9F041044620466A
:103B3000FFF73EFE80461D4850F83850606800F0A0
:103B4000F806AE61F82E03D10820A061BDE8F0812F
:103B500006F0070000287CD1F0100C38142878D229
:103B6000DFE800F00F771077283B293C3F5A775B5E
:103B70006E7777777777770A042020600820A06136
:103B800073E000BF042020600820A0616DE0000009
:103B900000100A4000000E4040420F00846C0840B4
:103BA0000C61084000600840801A0600F001002007
:103BB0000802002000BFD5E90410884208D2E86856
:103BC00030B1A0686A69E96888546869401C686116
:103BD000042020600820A06147E000BF0820A06109
:103BE00043E000212046FFF77EFE0820A061470346
:103BF0000FE0206800F0080020B101212046FFF707
:103C000072FE07E07F1E27B9A86940F48060A861B2
:103C100020E0EEE700BF28E000BFD5E901108842B0
:103C200008D2286830B1A9682868405CA060A868FC
:103C3000401CA860042020600820A06115E008E076
:103C4000042020600820A061A86940F48060A86179
:103C500000E000BF00212046FFF745FE2C20A061B8
:103C60000120F84941F8280000BF00BF00BF6DE700
:103C70002DE9F84306460C461746D4F80480D4F8DC
:103C800010900020E060A0616062002F7ED1206271
:103C900000BFD4F80480D4F810900020E060A06148
:103CA00000253046FFF792FD0546082D0BD0102D5C
:103CB00009D0206A401C2062D4E90710884201D94B
:103CC0006562ABE0E5E7A068A0B3606890B32078D8
:103CD0004006010E3046FFF795FD0546182D0BD026
:103CE000206A401C2062D4E90710884203D945F4B9
:103CF0000070606292E0CCE718E098F8001030465F
:103D0000FFF780FD0546282D0BD0206A401C20625D
:103D1000D4E90710884203D945F4007060627DE061
:103D2000B7E708F10108E068401CE060D4E9021040
:103D30008842E2D3A068B8B16068A8B1606998B160
:103D4000206988B13046FFF741FD0546082D0BD0AC
:103D5000102D09D0206A401C2062D4E90710884247
:103D600001D965625AE094E76069002850D0206963
:103D700000284DD02078012202EB4000C1B230462D
:103D8000FFF740FD0546402D0DD000E04BE0206AD6
:103D9000401C2062D4E90710884203D945F4007022
:103DA00060623BE075E72FE0D4E90501401E8142E7
:103DB00011D2012269463046FFF739FD0546502DE4
:103DC0001BD0206A401C2062D4E90710884201D928
:103DD000656223E05DE7002269463046FFF727FD74
:103DE0000546582D09D0206A401C2062D4E90710EE
:103DF000884201D9656211E04BE79DF8000009F89F
:103E0000010BA069401CA061D4E905108842CBD306
:103E10003046FFF7ECFC0120BDE8F8833046FFF7A1
:103E2000E6FC0020F8E7012F28D13046FFF7C0FC60
:103E3000C0B2009084489DF8001040F83140002046
:103E400081499DF8002001EBC20148600820B06163
:103E50002020306001213046FFF745FD00BF7B4840
:103E60009DF8001050F821000128F8D10020774972
:103E70009DF8002041F822000120CDE70020CBE78B
:103E80002DE9F84F04460D461646D5F80090D5F8B2
:103E90000CA00020A8606861A861002E75D10420E4
:103EA00020602820A0610020009083466EE02068FA
:103EB00000F0080000285FD000200090606800F04B
:103EC000F80707F00700002852D1F8100C38142822
:103ED0004ED2DFE800F00F4D104D152716282B327B
:103EE0004D33444D4D4D4D4D4D0A0420206008206A
:103EF000A06140E000BF042020600820A0613AE0FB
:103F000000BFD5E90410884207D2E86828B1A0684C
:103F10000AF8010B6869401C6861042020600820D1
:103F2000A06128E000BF0820A06124E00820A06173
:103F3000012000904FF0000B1DE000BFD5E90110FB
:103F4000884207D2286828B119F8010BA060A86838
:103F5000401CA860042020600820A0610BE0042021
:103F600020600820A061012000904FF0000B02E0CB
:103F70000820A06113E009E0009838B158460BF121
:103F8000010BB0F5803F01D901E00DE08FE704207F
:103F9000A06147F48060A8610120BDE8F88F04208B
:103FA000A061AF610020F8E7012E15D12046FFF790
:103FB000FFFB8046244840F838500120224901EB9D
:103FC000C8014860042020602820A061012120460B
:103FD000FFF789FC0120E0E70020DEE710B58B78D1
:103FE000012B00D100E000234C7843EA4403DAB20D
:103FF0000B7833B1012B0AD0022B0ED0032B18D132
:1040000011E0C260CB7803F0FE03036311E00262AB
:10401000CB7803F0FE0444630BE04262CB7803F0FC
:10402000FE04846305E08262CB7803F0FE04C4637F
:1040300000BF00BF10BD10B5012A09D1C3690B43F1
:10404000C3610AE014020020F001002008020020F1
:10405000C36907248C432340C36110BD012908D1E3
:10406000C26942F00102C261042202602822826118
:1040700005E0C26902F00602C2612C2282610022C0
:10408000264B1A6070470146C86AC0B2704730B507
:104090000346002008249C61DC6A204D2D684C55A5
:1040A0001E4C2468641C1D4D2C602C4624689442D0
:1040B00000D3012030BD70B505462846FFF778FBD8
:1040C0000446174850F824600020154941F82400A0
:1040D000304670BD70B505462846FFF769FB0446BB
:1040E000104850F8246000200E4941F82400304662
:1040F00070BD00F01F02012191404209920002F1BF
:10410000E022C2F80011704700F01F020121914027
:10411000054A430942F82310704700006C00002054
:10412000080200201402002080E100E038B50446B7
:104130006068406800F0F805C02D3AD004DCA82D76
:104140000DD0B82D3CD10BE0C82D31D0F82D37D192
:1041500004206168086008206168886134E000BF5D
:1041600000BFE06A50B9226BD4E908109047E062C2
:10417000E06A08B900200BE00020A062A16A481C98
:10418000A062606A405C0090E06A401EE06201202C
:1041900020B19DF800006168886002E0002061683D
:1041A00088600420616808600820616888610BE00D
:1041B00000BF04206168086008206168886103E02E
:1041C0002C206168886100BF00BF38BD10B55F4812
:1041D0000068FFF7ABFF10BD38B504460D468DF8FB
:1041E000015000208DF803008DF8000069466068DA
:1041F000FFF7F4FE002038BD2DE9F04705460F46D5
:1042000090461E4652495348286005F108044FF075
:104210002009C4F80090206809F04BFD6060002080
:10422000A060E0602061606100BFA4F1080505F1B5
:104230002004C4F80090206809F03BFD6060002075
:10424000A060E060266100BFA4F120056F604249D4
:104250006868FFF702FB41462846FFF7BDFF1720BD
:104260000021002807DA0A07140E3C4A00F00F0369
:104270001B1FD45403E00A07130E394A135400BF1E
:104280002846BDE8F08770B50446342009F01AFDD1
:104290000546234654223349FFF7AEFF05462B4817
:1042A000056070BD38214268916144214268116007
:1042B000704710B504460023F022032101200AF0C4
:1042C0002BFD0423F022012102200AF025FD042306
:1042D000F022012102200AF01FFD0023F022042118
:1042E00001200AF019FD0423F022002102200AF027
:1042F00013FD00201C490860122001218140420961
:10430000920002F1E022C2F8001100BF2046FFF740
:10431000C9FF002010BD10B50146122001228240C5
:10432000124B440943F8242000BF002010BD03466F
:104330000020704700B503465868006800F004008C
:1043400010B91846FFF7AEFF002000BD7000002036
:10435000241C0110701B0110A086010018ED00E064
:1043600000E400E000100A401812104080E100E074
:1043700070B504460D462A46214653480068FEF7AC
:104380005EF970BD10B50446042C02DD4FF0FF301D
:1043900010BD4E48006830B14C4800680068416864
:1043A0004A48006888474A480470052C22D2DFE852
:1043B00004F02203080D17004648006843490860CE
:1043C0001EE0454800684149086019E00121434862
:1043D000006800F0B6F8414800683C4908600FE00A
:1043E00000213E48006800F0ACF83C4800683749BE
:1043F000086005E000BF3A4800683449086000BF23
:1044000000BF32480068006801683048006888478B
:104410000020BDE700B585B0002000900123314A9F
:104420000146019030A007F01BFC0020542101231D
:10443000314ACDE90010102130A007F011FC002016
:104440004FF496410423304ACDE9001001462FA0D5
:1044500007F006FC002204A923A007F080FC9DF8C9
:104460001000FFF78FFF002203A924A007F077FCBC
:104470009DF80C1017480068FFF7AEFE002202A955
:1044800022A007F06CFC14480299006800F0D9FBE8
:1044900005B000BD10B5AFF22710FFF7F4FEAFF284
:1044A0002F1000F0EBF9AFF2371000F070FB00F0C6
:1044B0003DF8FFF7AFFF002010BD054800787047BA
:1044C00002480068704700000400002078000020C7
:1044D0007400002070000020840000207C00002078
:1044E000800000200C25011044617461206F7574F8
:1044F00020706F7274000000EC25011049324320D7
:1045000061646472657373009025011055415254C3
:104510002062617564726174650000003B493C492A
:1045200001600121017100214171704710B508201F
:1045300009F0C8FB0446FFF7F1FF04463548046064
:1045400010BD0171704710B504460223F02203210B
:1045500001200AF0E1FB04202F49886200022F4964
:10456000086008202E494860002010BD10B50446A0
:1045700000202B4948600523F022032101200AF086
:10458000CBFB002010BD70B5064600212548006811
:10459000FEF7D3F804465CB3307960B1A188628835
:1045A000881A00EBD07102EB61052D044FF4A07066
:1045B000B5FBF0F50CE02189E288881A00EBD07198
:1045C00002EB6101C1F1C8052D04C820B5FBF0F56F
:1045D0004FF6C070054012480560707910B964202C
:1045E0000AF0E2FA4FF480600C49091F086005E008
:1045F00000200A49091F0860094908600CB1012020
:1046000000E000207071002070BD0000241C01102B
:10461000641C01107C000020001010401812104093
:1046200000100E4004000020F8B504464FF480400E
:10463000E34908600020E349C1F81402E2488668B3
:104640000420E149086220E000BFA06A60B9E36984
:104650005900E26A206A90474008A062A06A08B93F
:1046600000200CE000206062616A481C6062206AE1
:1046700030F811000090A06A401EA062012000B92D
:1046800009E0BDF80000D0498860CF48C06800F05C
:1046900002000028D8D100BF06F47F40B0F5B44F27
:1046A00003D1012084F8300026E006F47F40B0F505
:1046B000B64F1ED1251DB7B200BF28460AF036FD01
:1046C0002968081A002800DC0FE0E968481CE86047
:1046D000686820F811702869401C28612968E8681A
:1046E000884201D10020E86000BF012084F830003A
:1046F00002E0002084F83000606B401C6063F8BD6D
:1047000010B5B2480068FFF78FFF10BD02464FF4A6
:104710008040AB4B1860002106E0AD48406900F0D6
:10472000040000B102E0491C9629F6D300BF962987
:1047300012D10020A24B1860002106E0A448406975
:1047400000F0040000B102E0491C1029F6D300BFBC
:10475000102901D1012070470020994B186000BF3B
:10476000F9E738B50446002500220421964804F0F4
:104770008BFB68460AF01EFB0CE02046FFF7C6FFE5
:1047800008B1012507E000980AF056FA91498842DD
:1047900000D900E0F1E700BF012204218A4804F0BB
:1047A00073FB284638BD2DE9F04188B004460E461B
:1047B00089498A482060251D4FF01008C5F80080FF
:1047C0002968480009F075FA68600020A860E86070
:1047D0002861686100BF2C1F04F11C05C5F800802A
:1047E0002968480009F065FA68600020A860E86060
:1047F0002E6100BFA5F11C0402900390784806903A
:104800000F200190042004900020059001A96E481B
:1048100004F0D2FA002703E06B48806807907F1C01
:10482000082FF9D30121684804F0BAFA0421664838
:1048300004F0B4FA01220421634804F025FB172098
:104840000021002807DA0A07150E664A00F00F0358
:104850001B1FD55403E00A07130E634A135400BF0D
:10486000002084F830006063A06384F83C00204698
:10487000FFF777FF204608B0BDE8F08170B5044629
:10488000402009F01FFA05462146FFF78CFF054638
:104890004E48056070BD10B5044604204949886340
:1048A00000034749091D08600523F0220321012068
:1048B0000AF032FA0523F022042101200AF02CFA32
:1048C0000123F022132118460AF026FA17200121AD
:1048D00081404209920002F1E022C2F8001100BFBB
:1048E000002010BD10B501460020354A121D106091
:1048F0001720012282403D4B440943F8242000BF89
:10490000002010BD2DE9F84380460E4617460025CD
:104910001FE008F1040420460AF008FC002801DC2E
:10492000002010E0A168481CA060606830F8110009
:1049300000906069401C60612168A068884201D1D4
:104940000020A060012000B905E0BDF8000070550E
:104950006D1CBD42DDD300BF2846BDE8F88310B50D
:104960000446201D0AF0E2FB10BD10B50446D4E950
:104970000D01401A18D094F8300088B914F83C0F93
:10498000401C207014F83C09052815D12046FFF77B
:10499000E8FE17A007F0BAF8002084F83C000BE00E
:1049A000002084F83C0007E04FF480400449086090
:1049B00000200449C1F81402606BA063002010BD00
:1049C000141210400010104000500C4080000020D5
:1049D00000610F4020A10700241C01108C1B011056
:1049E00000CB280C18ED00E000E400E080E100E0DE
:1049F00073796E630A0000007CB50446002084F8D9
:104A000034006068806800F00E05042D1CD16168D8
:104A10000968C8B200BF00BFD4E90612891AA268AB
:104A2000511A002900DC0EE06269511C6161E168E5
:104A30008854A169491CA161A2686169914201D1B0
:104A40000021616100BF2DE00C2D03D1606800687A
:104A5000009027E0022D25D1002621E000BFE06A6A
:104A600050B9226BD4E908109047E062E06A08B9B7
:104A700000200BE00020A062A16A481CA062606ACE
:104A8000405C0190E06A401EE062012030B10120EC
:104A900084F834009DF8040061680860701CC6B298
:104AA000102EDBDB7CBD10B56B480068FFF7A4FF60
:104AB00010BD2DE9FF4104460F4616466749684878
:104AC000206004F108054FF02008C5F80080286830
:104AD00009F0EFF868600020A860E860286168616C
:104AE00000BFA5F1080404F12005C5F8008028687E
:104AF00009F0DFF868600020A860E8602E6100BF60
:104B0000A5F12004676084F834004FF496400090CB
:104B100003208DF8050000208DF804008DF80600B4
:104B2000504802906946606804F0BAFB00208DF896
:104B30000E008DF80F0001208DF80C008DF80D008F
:104B400003A9606804F076FB0121606804F030FD81
:104B500001220021606804F053FC012211466068C4
:104B600004F04EFC18200021002807DA0A07150E71
:104B70003D4A00F00F031B1FD55403E00A07130E34
:104B80003A4A135400BF204604B0BDE8F08170B526
:104B90000446382009F096F8054622463449FFF7C6
:104BA00088FF05462C48056070BD10B504460123FA
:104BB000F022002102200AF0AFF80123F02219466A
:104BC00002200AF0A9F80023F022032101200AF0B4
:104BD000A3F80023F022042101200AF09DF81820F8
:104BE000012181404209920002F1E022C2F8001145
:104BF00000BF002010BD10B504460423F0220021A0
:104C000002200AF089F80423F022012102200AF090
:104C100083F8182001218140164A430942F82310E5
:104C200000BF002010BD034600207047014691F8E8
:104C3000340020B900204A6810604A6810600020E3
:104C4000704770B504460D46064A2946606804F070
:104C5000CBFC002070BD000084000020241C01104B
:104C6000CC1B011000CB280C18ED00E000E400E0A4
:104C70000010084080E100E010B540EA010403465E
:104C8000A40703D00AE010C9121F10C3042AFAD8DF
:104C900004E011F8014B03F8014B521E002AF8D131
:104CA00010BD0346C9B202E003F8011B521E002AE0
:104CB000FAD1704740F203107047F749486080040A
:104CC000800C06D0012808D0022808D0032808D07C
:104CD0004869CA699207FCD47047087DF9E7888A59
:104CE000F7E7888A0A7D40EA0240F2E710B54FF400
:104CF000001404EB415141EA006040EA02401843CD
:104D000010BD806A400302D54FF4C01070470020E8
:104D1000704730B50D46134604460022114628461A
:104D2000FFF7E4FF01462046FFF7EBFFBDE8304008
:104D30000843C2E7D84B00B59A60FFF7E2FF08438B
:104D40005DF804EBB9E7F0B5D34C16460F460546BF
:104D5000A36000231A4631463846FFF7C7FF0146D5
:104D60002846FFF7CEFF01436160E0698007FCD46D
:104D7000F0BD00220621CCE7F0B51C4615460E46D4
:104D80000746FFF7F6FF23462A4631463846BDE878
:104D9000F040D8E7F0B51C4616460D460746FFF72B
:104DA000E8FFBD4B9E603846FFF7ABFF284340F459
:104DB00000405860A804800C07D001280BD0A1B295
:104DC00002280AD0032804D05C61D8698007FCD48B
:104DD000F0BD9982240C1C75F7E79982F5E7AE497E
:104DE000CB6913F0060F19D01022CA61CA6912F0FC
:104DF000160FFBD15A0711D5C26902F46002B2F551
:104E0000400F0BD3FF220A73C0696FF30F0000F14C
:104E100001004860087DC8698007FCD470472DE90F
:104E2000F041054600248C46EA7C012101FA02F19A
:104E3000994F2046CEB2F9698907FCD444F6206820
:104E4000641C444507D2012205212846FFF761FF73
:104E5000C0B23042F4D03042904E28750CD0BCF134
:104E6000000F0ED0BCF1010F0DD0BCF1020F06D027
:104E7000BCF1030F0BD108E03046BDE8F081884C4F
:104E800005E0884C03E0884C01E04FF0FF342846F1
:104E9000FFF737FF85490843E97C08437860F869E4
:104EA000800702D5641EFAD11EE0ECB1387D28756A
:104EB000BCF1000F1ED0E86AE0B1C1B2052917D0DD
:104EC00001222846FFF725FFC0B26875E96A10EA9B
:104ED000112F0FD0C1F3074119B100222846FFF767
:104EE00018FF6E48801CC8E72846FFF778FFC3E725
:104EF000287DEBE70020C0E730B5154604460B4699
:104F0000002211460120FFF7F1FE01462B46002248
:104F10002046FFF73FFF208D800401D5002030BDE3
:104F20002046BDE83040002179E7F0B50546C46968
:104F3000806AA62681050BD504F42001B1F5000F87
:104F400006D144F40014EC61296A41F4001129628D
:104F5000810618D5400501D5022700E001273F1D35
:104F6000012285212846FFF7D4FE00F00703E869F7
:104F7000C7F1100100F4E020C84003430122812161
:104F80002846FFF7F9FE95F82800C00707D0002350
:104F90000322A3212846FFF7D6FE761EFDD1C4F3D7
:104FA00042513D48062904D3A521C16024F44004A0
:104FB00001E0FF21C1608461F0BD10B5044690F8A6
:104FC0002800000611D501222B212046FFF7A1FE63
:104FD0006075A16A000621F4703102D54FF480306B
:104FE00001E04FF480400143A16210BD30B50023C1
:104FF000816383840723C38410E0838CCC8823449B
:1050000083840B79C48CCD88DB0701D0022300E0B8
:10501000012305FB03430831C384083A082AECD274
:10502000C3F3CC01C18430BD826B22B109B1828C43
:105030000A80C08C704711B18268120C0A808068A7
:10504000C00C704710B5044600F13C030021FFF787
:10505000EBFF01001FD0A06A40F48070A0622046E0
:10506000FFF74FFE40EA0102114802430A4842603E
:1050700002E0027D03F8012B0A00A1F1010189B2CF
:10508000F7D100218034A34202D203F8011BFAE7D2
:10509000C1698907FCD410BD003000400300020044
:1050A00070820300E09C41000083400A004020051C
:1050B00000002072491C01228A404FF0006182608A
:1050C0008A4200D90A46C26070472DE9F0410D4678
:1050D0000446C069FD491F461646884272D02046E4
:1050E000A562FFF76AFFA068B0F1807F1CD9A06AB3
:1050F00040F40070A062207C012806D020280BD04C
:10510000C2280CD04FF00210B7E6802301221721ED
:105110002046FFF718FE07E02046FFF72AFE002290
:10512000B7212046FFF7F5FD680504D5E84801687A
:1051300041F080510160DFF89C83680724D501228B
:1051400035212046FFF7E5FDC0B26075810755D4D3
:10515000C00735D1012205212046FFF7DAFD617D28
:1051600041F0020140EA012082B202212046FFF70D
:10517000C3FE0028C8D1012235212046FFF7C9FD12
:1051800060754FEA807019E0E8041CD50122052102
:105190002046FFF7BEFDC0B2207541062ED440F078
:1051A000400201212046FFF7A7FE0028ACD10122D2
:1051B00005212046FFF7ADFD2075400600281DDBC8
:1051C00040465AE652E0280718D501223F212046E2
:1051D000FFF79FFDC0B2607501060FD440F0800359
:1051E00001223E212046FFF7C7FD01223F21204634
:1051F000FFF78FFD60754FEA0060DFE7A80705D570
:10520000002238212046FFF784FD1BE0E80619D56F
:10521000680502D54FF0400C01E04FF0800C0122F0
:1052200065212046FFF775FDC0B2607510EA0C0FCE
:1052300008D040F0C80323EA0C0301226121204674
:10524000FFF79AFDC6F3C1400328A06A10D020F4EE
:105250008020A062280507D5C6F302435B1E012209
:10526000C0212046FFF76FFDC4E90767002004E670
:1052700040F48020EDE72DE9F041954D04469C4631
:10528000A86916460F4610F4400F50D00146C0F3EF
:10529000C140E16103284DD00020A0622046FFF705
:1052A0009EFD0022FF212046FFF733FD002201234F
:1052B00011466520FFF71AFD40F4C010FFF7FDFC12
:1052C00055280CD040280AD3C02808D2810606D41D
:1052D00040F0C003012261212046FFF74DFD8022EE
:1052E00000212046FFF7DDFC06F0C100C12824D0D4
:1052F0004FF4702101EA074141EAC0504FF6FF71B7
:105300000844286003229F212046FFF702FD4FF04A
:1053100000412061C4E9001530B16FF07F4188423F
:1053200002D06D4988420BD16A48401DA5E540F482
:105330004001ACE74FF48020AFE76648401E9CE593
:105340004FF48040A0621C2060839C2020835F4F2C
:10535000B00701D5384600E0604844F81C0F6048AB
:105360006060202020760C202075D820A0761020A8
:10537000A07514F80C0C1C3C7F2824D00CDC1F28D2
:105380001BD004DC012814D01C282ED113E02028C7
:1053900015D0372829D114E0C2281AD004DC8C2873
:1053A00013D0BF2821D112E0C82814D0EF281CD177
:1053B00013E04C4D12E04C4D10E04C4D0EE04C4DC6
:1053C0000CE04C4D0AE04C4D08E04C4D06E04C4DD5
:1053D00004E04C4D02E04C4D00E04C4D2DB16246D6
:1053E00031462046A847064601E03A4E361D06B330
:1053F0000025E761284601F002FB0321012300227A
:105400000846FFF773FC014600222046FFF792FC96
:1054100001460DB1FF2000E00020814202D16D1C49
:10542000022DE7DB022D0AD1A06A40F40070A062D1
:1054300005E0208D000402D52046FFF703FE20463C
:10544000FFF773FD304618E52DE9FF4F89B0804620
:10545000002000900A989346C6684046FFF7BFFCBC
:105460004046FFF7AAFDD8F82870780476D5B8F83A
:10547000180007F0040100F47F40084300D0012029
:105480008146012205214046FFF743FC88F81400BD
:105490005FEA090004D0012235214046FFF739FCBC
:1054A00088F81500B8F81440701C31D06EB1B8F807
:1054B000180024EA00023040024309F10100C1B2A1
:1054C0004046FFF719FD009067E02CE0FF3F8003A6
:1054D0000030004005000200CCCCCC00FF3F810B27
:1054E000008080020B66001099600010A95E001019
:1054F00083640010095E0010BD5F00105161001050
:10550000B5660010BD6200100D6200108B670010C0
:105510009BF8000010B30C980288B8F81A000240FB
:1055200084432243C9E7B8F81A00204237D001204B
:105530008BF800000C98002509F1010A0480B8F8E6
:105540001A000AF0FF0124EA00024046FFF7D4FCEB
:10555000009020B16D1C032DF1DB82E11FE0A6203D
:10556000401EFDD1012205214046FFF7D2FB88F8FD
:1055700014005FEA090004D0012235214046FFF7FC
:10558000C8FB88F81500B8F81400B8F81A100842DB
:1055900002D0FE48009064E100980028DDD117F4A5
:1055A000603FDAD04FF0000A0120D8F83850544656
:1055B00006900EB1FF2000E0002007904FF48030ED
:1055C00005900A9808F13C0C4FF00009D0E9001052
:1055D0000844CDF808C00890D8F81C0004A9C0F30E
:1055E0004050C01C03904046FFF71EFD01900DB9CE
:1055F000BDF810A0380404D5F80502D44046FFF7E2
:1056000021FD701C01D0AEB100E19BF8000050B14B
:105610003804F9D5DDE901200C99FFF72DFB0020B6
:10562000ADF81000F2E04046FFF77FFC00200DB01F
:10563000BDE8F08F00208BF800003804E4D5DDE9E8
:1056400001210C98FFF718FBE0E0BAF1000F3FD101
:1056500095F90500B5F806A0D5F80090002800DA05
:1056600040420121814005912879C00721D0B00135
:1056700040EA061040EA86003043C0B2079002209C
:105680000690402C0CD0102C0AD0042C08D0012CF1
:1056900006D0202C0AD0082C08D0022C06D017E007
:1056A0004046FFF742FC4FF00210C0E744EA5404C2
:1056B0000EE00EB1FF2000E00020079001200690D0
:1056C000302C03D00C2C01D0032C01D104EA44046B
:1056D00034B925B12879C00701D0C02400E0802466
:1056E0000A980599026809EB0100824274D2089871
:1056F0004946484570D917F4403F5FD0701C0AD026
:10570000002E1ADDF8030BD50B4636214046039ACE
:10571000FFF732FB4BE09CF800002042F2D146E05C
:1057200001230022E5200399FFF7E0FA0146012357
:105730004A464046FFF72EFB39E038D1F80301D541
:105740003C2000E0E820012300220399FFF7CEFA75
:1057500001464A464046FFF7EDFAC0B2B90302D50A
:10576000C14389070AD0C00724D0F8030BD54B46A4
:1057700039214046039AFFF7FFFA10E04046FFF751
:10578000D4FB824853E701230022E5200399FFF769
:10579000ADFA014600234A464046FFF7FBFA0120D6
:1057A0008BF800009CF8000020438CF80000009863
:1057B000F0BB11E09CF80000A043F6E79CF8001055
:1057C000079A21EA040022401043814204D08CF859
:1057D000000001208BF800000698C44001D10CF1B4
:1057E000010C3DB195F90500002803DA0598C0F1D8
:1057F000000000E005988144AAF101001FFA80FA38
:10580000BAF1000F02D10DB105F10805BDF8100085
:10581000A0F10101ADF8101000287FF416AF9BF83D
:10582000000028B138041CD54046FFF7A2FA00E07A
:1058300017E040460299FFF764FA019A1043544A70
:105840001043544A506002E011F8010B10750198A2
:10585000A0F101039BB201930028F5D1D069800724
:10586000FCD44046FFF761FB0098E0E670B50A689B
:105870008368CBB10468944206D8C5684E68254455
:105880001644B54200D3121B934210D94C681444FD
:105890009C420CD80B7C13F0300F02D0C0688442BD
:1058A00005D800200A6070BD3848801C70BD37489C
:1058B000401E70BD70B50C4615460646FFF78FFAC0
:1058C0003046FFF756FA33498D603046FFF719FA34
:1058D000326A02F4600242EA046210434860C72C54
:1058E00007D0602C05D001213046BDE87040FFF79D
:1058F00096BA0321F8E770B516460C460546FFF741
:1059000038FA24498C60286A3043486070BD2DE91C
:10591000F047984617460E4682461C68DFF874909A
:10592000556865E03868C1B2C1F58074396911B154
:10593000A54200D22C46214602E0761C6D1E641E54
:10594000B20709D03278FF2A11D1BDB1002CF4D1B1
:1059500014E0361D2D1F241F3268521C07D1042D60
:1059600005D3042CF5D203E0761C6D1E641E2DB108
:1059700024B1042C02D23278FF2AF5D0091B01444D
:10598000396074B12246504606E00000050002006E
:105990000080204200300040FFF7ADFF386820440F
:1059A00038603DB3002CBDD04846B1070BD0C5B11F
:1059B0004CB116F8011B01756D1E641EF5E702CE91
:1059C00041612D1F241F042D07D3042CF7D205E0BD
:1059D00016F8011B01756D1E641E15B1002CF7D160
:1059E00000E02CB902215046FFF719FA002804D133
:1059F000002DD6D10020C8F80040BDE8F08700682F
:105A0000084404E00168491C04D1001D121F002A4B
:105A1000F8D10020704713680068184410604840AF
:105A2000800701D000207047012070473FB51D4618
:105A30000C4602AAFFF7EFFF35B348B922E00298FF
:105A400014F8011B027891421FD1401C6D1E029078
:105A5000A0070BD0002DF2D116E002982168026851
:105A6000914212D1001D241D2D1F0290042DF4D24D
:105A700008E0029814F8011B0278914205D1401CFD
:105A80006D1E0290002DF4D1002004B030BDF8B599
:105A90000D46116800911E465468F7436A46294630
:105AA000FFF7B9FF7CB3E8B1FAB2A80718D054B336
:105AB000009810F8013B82EA030115F8013B0090C1
:105AC000734019421BD1641EEFE7009829680268F1
:105AD00071407A40114212D1001D2D1D241F0090EB
